:03010800010A00E9
:0400D7007F147E0014
:0A00DB00EF1FAC0670011E4C60110F
:0F00E50000000075080B7509BED509FDD508FA96
:0300F40080E52282
:10008F001200D730B0FD1200D7050AE50AB40803F5
:10009F00E4F50AAF0AA8077401088002C333D8FC3D
:0400AF00F4F5A022A2
:1000B3001200D730B0FD1200D7150AE50AB4FF03CA
:1000C300750A07AF0AA8077401088002C333D8FC76
:0400D300F4F5A0227E
:1000F70075A07F20B00312008F20B1F71200B380E4
:01010700F205
:03000000020003F8
:0C000300787FE4F6D8FD75810A02004AFF
:10000F000200F7E493A3F8E493A34003F68001F210
:10001F0008DFF48029E493A3F85407240CC8C333F2
:10002F00C4540F4420C8834004F456800146F6DFC1
:10003F00E4800B0102040810204080900108E47E48
:10004F00019360BCA3FF543F30E509541FFEE493B6
:10005F00A360010ECF54C025E060A840B8E493A37D
:10006F00FAE493A3F8E493A3C8C582C8CAC583CAA8
:10007F00F0A3C8C582C8CAC583CADFE9DEE780BE60
:01010B0000F3
:00000001FF
