:10030900596F757220636C6F636B20686572653A0B
:0A0319000020203A20203A202000A6
:0D038900011C00011B00011A0002180000F9
:10012E001203231203667BFF7A0379097D017F0197
:10013E001202AB7BFF7A03791A7D017F021202ABAA
:10014E00751C17751B3B751A37E51CFB7A00750C71
:10015E00027D017F021202ECE51BFB7A00750C0298
:10016E007D047F021202ECE51AFB7A00750C027D0B
:08017E00077F021202EC80D1A0
:03000B0002018669
:04018600C0E0C0D045
:10018A00758CFC758A660519E51970020518C39401
:10019A00E8E51894034027051AE51A943C401975B6
:1001AA001A00051BE51B943C400E751B00051CE557
:0E01BA001C94184003751C0075180075190080
:0501C800D0D0D0E032B0
:100323005389F0758901758CFC758A66C28DD28CF0
:07033300D2A9D2AFC2B9222A
:10033A00EF1FAC0670011E4C600B007D027CC7DC0F
:05034A00FEDDFC80EB6C
:01034F00228B
:06037A00C2A58F80D2A78E
:080380007F027EEFDEFEDFFCD0
:010388002252
:0A039700C2A612037AC2A702038077
:1002CE00CFCDCFCECCCE12004D7C007D0A12004D8C
:0402DE00ED2430FFDC
:0A02E200D2A612037AC2A70203801D
:10035000AE07BE0104ED148006BE0209ED243F4441
:0603600080FF120397224A
:100366007F381203977F0C1203977F061203977F3D
:0403760001020397E6
:0A03A100AC03120350AF040202E2A5
:0602AB008B088A09890A94
:1002B100120350E4FDAB08AA09A90A8D82758300D7
:0C02C10012000EFF60061202E20D80E940
:0102CD00220E
:0C0278007F0AEA24FFFDE434FFFC7E0056
:080284008E0D8F0E8C0F8D1002
:10028C007F017E00E4FBEBC39510E50F6480F874EE
:0E029C008098500AAC0DAD0E12003B0B80E8AE
:0102AA002231
:0402EC008A0A8B0BE4
:1002F000120350AA0CEAD39400400D120278AC0A03
:08030000AD0B1202CE1A80EDD4
:0103080022D2
:1001CD00120350C3EA64809480400B7F2B1202E22D
:1001DD008A168B17800E7F2D1202E2C3E49BF51752
:1001ED00E49AF516AA15EAD39400400D120278ACE4
:0901FD0016AD171202CE1A80EDB6
:0102060022D5
:040207008A1F8B209F
:10020B00120350AA21EAD3940040297F1012027ADC
:10021B00AC1FAD20CFCDCFCECCCE12004DEF540FB7
:10022B00FEC3940AEE5004243080022437FF1202DE
:04023B00E21A80D172
:01023F00229C
:040240008A248B255C
:10024400120350AA26EAD394004028EA24FFFDE4CE
:1002540034FFFC7F027E00120284AC24AD25CFCD96
:10026400CFCECCCE12004DEF54012430FF1202E267
:030274001A80D21B
:010277002264
:030000000200A259
:0C00A200787FE4F6D8FD7581260200E9A5
:10000E00BB010CE58229F582E5833AF583E02250A7
:10001E0006E92582F8E622BBFE06E92582F8E222F1
:0D002E00E58229F582E5833AF583E493220B
:10003B00EF8DF0A4A8F0CF8CF0A428CE8DF0A42ED9
:02004B00FE2293
:10004D00BC000BBE0029EF8DF084FFADF022E4CC97
:10005D00F875F008EF2FFFEE33FEEC33FCEE9DEC60
:10006D00984005FCEE9DFE0FD5F0E9E4CEFD22EDA6
:10007D00F8F5F0EE8420D21CFEADF075F008EF2FF0
:10008D00FFED33FD4007985006D5F0F222C398FDE1
:05009D000FD5F0EA227E
:1000AE0002012EE493A3F8E493A34003F68001F239
:1000BE0008DFF48029E493A3F85407240CC8C33353
:1000CE00C4540F4420C8834004F456800146F6DF22
:1000DE00E4800B0102040810204080900389E47E26
:1000EE00019360BCA3FF543F30E509541FFEE49317
:1000FE00A360010ECF54C025E060A840B8E493A3DE
:10010E00FAE493A3F8E493A3C8C582C8CAC583CA08
:10011E00F0A3C8C582C8CAC583CADFE9DEE780BEC0
:010396000066
:00000001FF
