:1006330020202020202020202020202020202020B7
:1006430000456E7465722050617373776F72643AFC
:10065300004E65772050617373776F72643A00536D
:100663007572653F0020202020202000594550212D
:07067300004E4F504521002D
:1008A700010800011A0001110001100004120000E4
:1008B7000000041600000457040A000000000109A4
:0508C70000020E00001C
:100974008F1BE51BB401047B2A8006E51B70097BF1
:09098400207D107F02120A5C22A2
:10067A007BFF7A0679337D017F021209167BFF7AA6
:10068A000679337D017F021209167BFF7A067944C7
:10069A007D017F011209167B7B7D017F02120A5CB4
:1006AA007B7D7D067F02120A5CE4F511F510F509DF
:0306BA00F508221E
:1006BD007BFF7A0679337D017F011209167BFF7A64
:1006CD000679337D017F011209167BFF7A06795475
:1006DD007D017F011209167B7B7D017F02120A5C71
:1006ED007B7D7D067F02120A5C751101E4F51AF51A
:0206FD001022C9
:1007E6007BFF7A0679337D017F011209167BFF7A3A
:1007F6000679337D017F021209167BFF7A0679623C
:100806007D017F01120916751101E4F51A751001B3
:0108160022BF
:1003E500E509C39404503BE5117037AF15AE14AD64
:1003F50013AC127B0AFAF9F81200FA8F158E148DD8
:10040500138C12E4FCFDE515250FF515E514350EE5
:10041500F514ED3513F513EC3512F512AA14AB15D9
:100425008046E509C39404504BE51164017045E528
:10043500107041AF0DAE0CAD0BAC0A7B0AFAF9F8A2
:100445001200FA8F0D8E0C8D0B8C0AE4FCFDE50D68
:10045500250FF50DE50C350EF50CED350BF50BEC13
:10046500350AF50AAA0CAB0D751F047D027F021231
:050475000957050922F2
:10057900AF19AE18AD17AC16AB15AA14A913A8126A
:10058900C31202177BFF7A0679337D017F01702937
:100599001209167BFF7A0679687D017F0212091616
:1005A9007BFF7A06796F7D017F011209167F01129F
:1005B90009CD750801751A01221209167BFF7A0601
:1005C90079687D017F021209167BFF7A0679747DAD
:1005D900017F01120916E4FF1209CD750801E4F53E
:0205E9001A22D4
:1008CD00E51070030207E6E510B40118850D1985D2
:1008DD000C18850B17850A16E4F50DF50CF50BF5BF
:0508ED000A12067A2248
:0B0A3100E51170030205791208CD22C8
:10081700AF15AE14AD13AC12E47B0AFAF9F8120166
:10082700858F158E148D138C12AA14AB15751F04A2
:100837007D027F02120957E509D39400400215098A
:01084700228E
:1006FF00AF0DAE0CAD0BAC0AE47B0AFAF9F81201A0
:10070F00858F0D8E0C8D0B8C0AAA0CAB0D751F04EB
:10071F007D027F02120957E509D3940040031509A2
:0C072F0022E509700612067A751A0122F4
:1009F2001206BDAA0CAB0D751F047D027F0202090F
:010A0200579C
:0B0A3C00E51070030206FF1209F22211
:0B0A4700E5117003020817120A3C22A0
:100A0300E511700BF515F514F513F51212067A229C
:100506001209B912067A1202288E0E8F0FAF1A122E
:100516000974E5087050E50F6410450E7018E51A69
:10052600B401131206BD751F04E4FBFA7D027F02B7
:10053600120957E4F509D3E50F9409E50E94005026
:100546000DE50F9400E50E940040031203E5E50F58
:10055600640E450E7003120A31E50F640D450E70E8
:10056600A5120A4780A0E50F640F450E7098120A7F
:030576000380936C
:10098D00EF1FAC0670011E4C600B007D027CC7DCB6
:05099D00FEDDFC80EB13
:0109A2002232
:060A1300C2A58F80D2A7EE
:080A19007F027EEFDEFEDFFC30
:010A210022B2
:0A0A5200C2A6120A13C2A7020A1975
:10093900CFCDCFCECCCE1200427C007D0A12004230
:04094900ED2430FF6A
:0A094D00D2A6120A13C2A7020A196B
:1009A300AE07BE0104ED148006BE0209ED243F44E8
:0609B30080FF120A52222F
:1009B9007F38120A527F0C120A527F06120A527F9E
:0409C90001020A52CB
:0A0A5C00AC031209A3AF0402094D18
:060916008B1B8A1C891DE9
:10091C001209A3E4FDAB1BAA1CA91D8D82758300D3
:0C092C00120003FF600612094D0D80E967
:01093800229C
:0C0879007F0AEA24FFFDE434FFFC7E004F
:080885008E208F218C228D23AF
:10088D007F017E00E4FBEBC39523E49522500AAC77
:09089D0020AD211200300B80EDAA
:0108A600222F
:040957008A1D8B1E4C
:10095B001209A3AA1FEAD39400400D120879AC1D0B
:08096B00AD1E1209391A80EDDE
:010973002261
:10073B001209A3C3EA64809480400B7F2B12094DEE
:10074B008A298B2A800E7F2D12094DC3E49BF52A33
:10075B00E49AF529AA28EAD39400400D120879AC43
:09076B0029AD2A1209391A80EDAA
:010774002262
:040775008A2D8B2E10
:100779001209A3AA2FEAD3940040297F1012087BFB
:10078900AC2DAD2ECFCDCFCECCCE120042EF540F33
:10079900FEC3940AEE5004243080022437FF120964
:0407A9004D1A80D194
:0107AD002229
:0407AE008A328B33CD
:1007B2001209A3AA34EAD394004028EA24FFFDE4F4
:1007C20034FFFC7F027E00120885AC32AD33CFCD00
:1007D200CFCECCCE120042EF54012430FF12094D8D
:0307E2001A80D2A8
:0107E50022F1
:10022800E4F51BF51C7590FFC2932097167F14FE0A
:1002380012098D3097FD7F147E0012098D751B0001
:10024800751C012096177F147E0012098D3096FDCB
:100258007F147E0012098D751B00751C05209517EB
:100268007F147E0012098D3095FD7F147E001209DF
:100278008D751B00751C092094177F147E001209C8
:100288008D3094FD7F147E0012098D751B00751C3E
:100298000D7590FFC2922097177F147E0012098D6A
:1002A8003097FD7F147E0012098D751B00751C02A6
:1002B8002096177F147E0012098D3096FD7F147EDC
:1002C8000012098D751B00751C062095177F147E7A
:1002D8000012098D3095FD7F147E0012098D751B63
:1002E80000751C0A2094177F147E0012098D309423
:1002F800FD7F147E0012098D751B00751C0E75900C
:10030800FFC2912097177F147E0012098D3097FD48
:100318007F147E0012098D751B00751C032096172B
:100328007F147E0012098D3096FD7F147E0012091D
:100338008D751B00751C072095177F147E00120908
:100348008D3095FD7F147E0012098D751B00751C7C
:100358000B2094177F147E0012098D3094FD7F14B2
:100368007E0012098D751B00751C0F7590FFC290D9
:100378002097177F147E0012098D3097FD7F147E19
:100388000012098D751B00751C042096177F147EBA
:100398000012098D3096FD7F147E0012098D751BA1
:1003A80000751C082095177F147E0012098D309562
:1003B800FD7F147E0012098D751B00751C0C20949E
:1003C800177F147E0012098D3094FD7F147E001271
:0C03D800098D751B00751C10AE1BAF1CBE
:0103E40022F6
:1008F20061A800E3208D00E3208D00E3208D00FF3E
:10090200C35000E30000000030D400FFC350017E5A
:0409120000000000E1
:0709E000EAC313FEEB13FF55
:0B09E700EF1FAC0670011E4C70F622E2
:080848008E228F23AB05AA04E8
:10085000900000EB4A6021C3E5829523E583952251
:100860005016D2A51209E0C2A51209E0EB2582F5C7
:0808700082EA3583F58380DF85
:01087800225D
:1005EB008B1F8A208921AB1FAA20A921120097FFFC
:1005FB00AEF04E700A9000021200C245F060228EDF
:10060B001B8F1C9000021200C2F51E85F01DFDAC65
:10061B001D12084874042521F521E43520F52080AE
:08062B00C57F647E000209E7AF
:0E0A220000007F7F7E127D6BDDFEDEFCDFFAC2
:010A300022A3
:0509CD00EF7BFF600656
:0409D2007A0879F234
:0209D60080049B
:0709D8007A09790A1205EB10
:0109DF0022F5
:0300000002047A7D
:0C047A00787FE4F6D8FD7581340204C1DF
:10000300BB010CE58229F582E5833AF583E02250B2
:1000130006E92582F8E622BBFE06E92582F8E222FC
:0D002300E58229F582E5833AF583E4932216
:10003000EF8DF0A4A8F0CF8CF0A428CE8DF0A42EE4
:02004000FE229E
:10004200BC000BBE0029EF8DF084FFADF022E4CCA2
:10005200F875F008EF2FFFEE33FEEC33FCEE9DEC6B
:10006200984005FCEE9DFE0FD5F0E9E4CEFD22EDB1
:10007200F8F5F0EE8420D21CFEADF075F008EF2FFB
:10008200FFED33FD4007985006D5F0F222C398FDEC
:050092000FD5F0EA2289
:10009700BB010A89828A83E0F5F0A3E02250068734
:1000A700F009E71922BBFE07E3F5F009E3192289F6
:0B00B700828A83E493F5F07401932229
:1000C200BB0110E58229F582E5833AF583E0F5F07C
:1000D200A3E0225009E92582F886F008E622BBFE59
:1000E2000AE92582F8E2F5F008E222E5832AF5839F
:0800F200E993F5F0A3E9932264
:1000FA00E88FF0A4CC8BF0A42CFCE98EF0A42CFCA5
:10010A008AF0EDA42CFCEA8EF0A4CDA8F08BF0A422
:10011A002DCC3825F0FDE98FF0A42CCD35F0FCEB81
:10012A008EF0A4FEA9F0EB8FF0A4CFC5F02ECD3946
:0F013A00FEE43CFCEAA42DCE35F0FDE43CFC22B3
:1001490075F008758200EF2FFFEE33FECD33CDCC6D
:1001590033CCC58233C5829BED9AEC99E5829840F0
:100169000CF582EE9BFEED9AFDEC99FC0FD5F0D6CD
:10017900E4CEFBE4CDFAE4CCF9A88222B800C1B9F7
:100189000059BA002DEC8BF084CFCECDFCE5F0CB35
:10019900F97818EF2FFFEE33FEED33FDEC33FCEB6E
:1001A90033FB10D703994004EB99FB0FD8E5E4F929
:1001B900FA227818EF2FFFEE33FEED33FDEC33FC16
:1001C900C933C910D7059BE99A4007EC9BFCE99A0A
:1001D900F90FD8E0E4C9FAE4CCFB2275F010EF2F4F
:1001E900FFEE33FEED33FDCC33CCC833C810D7074F
:1001F9009BEC9AE899400AED9BFDEC9AFCE899F88A
:0E0209000FD5F0DAE4CDFBE4CCFAE4C8F9221C
:10021700EB9FF5F0EA9E42F0E99D42F0E89C45F03D
:0102270022B4
:10048600020506E493A3F8E493A34003F68001F281
:1004960008DFF48029E493A3F85407240CC8C33377
:1004A600C4540F4420C8834004F456800146F6DF46
:1004B600E4800B01020408102040809008A7E47E27
:1004C600019360BCA3FF543F30E509541FFEE4933B
:1004D600A360010ECF54C025E060A840B8E493A302
:1004E600FAE493A3F8E493A3C8C582C8CAC583CA2D
:1004F600F0A3C8C582C8CAC583CADFE9DEE780BEE5
:0108CC00002B
:00000001FF
