:07000300010B0102080000DF
:1001520012016F75A07F12009A8F0AE50AB401039B
:0D016200750B01E50AB402EE750B0280E991
:03000B000200FBF5
:0B00FB00C0E0C0D075D000C000C007FE
:10010600758CFC758A660509E50970020508C394B5
:10011600F4E5089401402C750800750900E50BB458
:10012600010FAFA07801EF08800123D8FDF5A0806C
:1001360012E50BB4020DAFA07801EF08800103D8D9
:03014600FDF5A024
:09014900D007D000D0D0D0E03284
:10016F005389F0758901C28D758CFC758A66D28CA6
:07017F00D2A9D2AFC2B922E0
:10018600EF1FAC0670011E4C600B007D027CC7DCC5
:05019600FEDDFC80EB22
:01019B002241
:10009A00E4F50C20B0137F14FE12018630B0FD7F08
:1000AA00147E00120186750C0120B1147F147E00A3
:1000BA0012018630B1FD7F147E00120186750C0292
:1000CA0020B2147F147E0012018630B2FD7F147EA6
:1000DA0000120186750C0320B3147F147E001201EE
:1000EA008630B3FD7F147E00120186750C04AF0CB6
:0100FA0022E3
:0300000002000EED
:0C000E00787FE4F6D8FD75810C020055E7
:10001A00020152E493A3F8E493A34003F68001F2A9
:10002A0008DFF48029E493A3F85407240CC8C333E7
:10003A00C4540F4420C8834004F456800146F6DFB6
:10004A00E4800B0102040810204080900003E47E43
:10005A00019360BCA3FF543F30E509541FFEE493AB
:10006A00A360010ECF54C025E060A840B8E493A372
:10007A00FAE493A3F8E493A3C8C582C8CAC583CA9D
:10008A00F0A3C8C582C8CAC583CADFE9DEE780BE55
:01000A0000F5
:00000001FF
