:100B0E004334005F5F5F5F5F5F5F00256C64004290
:100B1E006F6D6220686173206265656E2000706C77
:100B2E00616E7465642E202020202020202000205D
:100B3E002020202020200057524F4E4721002020F9
:100B4E002020202000212121212121426F6F6D21A3
:100B5E002121212121002121212121212121212198
:0E0B6E002121212121210000000000000000B3
:100DBB00010C28010D01040E0000000002080000C8
:040DCB00020A000018
:100A9B00752E101208558F2EE52E6410605C7B406E
:100AAB007A42790F7800AF11AE10AD0FAC0E120574
:100ABB008FE4FBFAF9F8C3120621703EE52EC394BE
:100ACB00004037E52ED394095030AF11AE10AD0F67
:100ADB00AC0EE47B0AF81205048F118E108D0F8C6F
:100AEB000EE4FCFDFEE511252EF511EE3510F5108B
:100AFB00ED350FF50FEC350EF50EAF11AE10AD0F4A
:020B0B00AC0E2E
:010B0D0022C5
:10069300E4F52278237C00FD7BFF7A0B7975FE7FDE
:1006A3000712044AE4F52DF52CF52BF52A120DD08B
:1006B3007BFF7A0B790E7D087F01120D037BFF7A96
:1006C3000B79117D057F02120D037B407A42790F6E
:1006D3007800AF2DAE2CAD2BAC2A12058FE4FBFABC
:1006E300F9F8C31206217049120A9B8F2D8E2C8DA7
:1006F3002B8C2AE4FFFEFDFCAB2DAA2CA92BA82AE8
:10070300C3120621602B7531FF75320B75331985C2
:100713002D37852C36852B35852A347B007A007955
:100723002312007A7B007A0079237D057F02120D64
:10073300037B407A42790F7800AF2DAE2CAD2BAC02
:100743002A12058FE4FBFAF9F8C31206217003029B
:1007530007FD7FD87E3C7D707C00AB2DAA2CA92B96
:10076300A82AC3120621702BE52264016025120D0D
:1007730061120D787BFF7A0B791D7D017F01120DCC
:10078300037BFF7A0B792C7D017F02120D03752207
:100793000180677FD87E3C7D707C00AB2DAA2CA99D
:1007A3002BA82AC31206216051E4F52DF52CF52B55
:1007B300F52A7BFF7A0B793D7D057F02120D037BC2
:1007C300FF7A0B79457D067F01120D037F207E4E54
:1007D300120D8F7BFF7A0B794C7D067F01120D037F
:1007E3007BFF7A0B790E7D087F01120D037BFF7A65
:1007F3000B79117D057F02120D03E522640160036D
:100803000206CDE50CFB7A007532027D0F7F0212E2
:100813000D44E50C60030206CDE50CFB7A0075324E
:10082300027D017F02120D44C28EC28CC2AF7BFFD8
:100833007A0B79537D017F01120D037BFF7A0B79CC
:10084300647D017F02120D037FFE7EFF120CB00256
:0208530006CDD0
:03000B00020B7C69
:040B7C00C0E0C0D045
:100B8000758CFC758A660509E50970020508C39431
:100B9000E8E50894034036750800750900150CE572
:100BA0000CD394005005750D048022E50CD3940AF3
:100BB0005005750D038016E50CD3941E5005750D78
:0D0BC00002800AE50CD394285003750D0146
:050BCD00D0D0D0E032A1
:03001B0002097265
:10097200C0E0C0F0C083C082C0D075D000C000C04B
:0D09820001C002C003C004C005C006C007CC
:10098F00758DFC758B66050BE50B7002050AE50D81
:10099F00B40318C3E50B944DE50A9401400D7FE8AD
:1009AF007E03120CB0750A00750B00E50DB402182A
:1009BF00C3E50B94F4E50A9401400D7FE87E031222
:1009CF000CB0750A00750B00E50DB40118C3E50BEB
:1009DF0094E8E50A9403400D7FE87E03120CB0758E
:0509EF000A00750B0079
:1009F400D007D006D005D004D003D002D001D00057
:0B0A0400D0D0D082D083D0F0D0E03200
:100D8F00EF1FAC0670011E4C600B007D027CC7DCB0
:050D9F00FEDDFC80EB0D
:010DA400222C
:060DE400C2A58F80D2A71A
:080DEA007F027EEFDEFEDFFC5C
:010DF20022DE
:0A000E00C2A6120DE4C2A7020DEA1B
:100D2600CFCDCFCECCCE1204AF7C007D0A1204AF5D
:040D3600ED2430FF79
:0A0D3A00D2A6120DE4C2A7020DEAD2
:100DA500AE07BE0104ED148006BE0209ED243F44E2
:060DB50080FF12000E2277
:100DD0007F3812000E7F0C12000E7F0612000E7F6D
:040DE0000102000EFE
:0A0E0200AC03120DA5AF04020D3A77
:060D03008B2E8A2F8930BF
:100D0900120DA5E4FDAB2EAA2FA9308D82758300A3
:0C0D1900120470FF6006120D3A0D80E914
:010D250022AB
:0C0C7D007F0AEA24FFFDE434FFFC7E0047
:080C89008E338F348C358D365B
:100C91007F017E00E4FBEBC39536E5356480F87493
:0E0CA1008098500AAC33AD3412049D0B80E8ED
:010CAF002222
:040D44008A308B3135
:100D4800120DA5AA32EAD39400400D120C7DAC30E6
:080D5800AD31120D261A80EDE9
:010D60002270
:100BD200120DA5C3EA64809480400B7F2B120D3A5C
:100BE2008A178B18800E7F2D120D3AC3E49BF518DD
:100BF200E49AF517AA16EAD39400400D120C7DACC4
:090C020017AD18120D261A80ED41
:010C0B0022C6
:040C0C008A1B8B1C98
:100C1000120DA5AA1DEAD3940040297F10120C7F63
:100C2000AC1BAD1CCFCDCFCECCCE1204AFEF540F4A
:100C3000FEC3940AEE5004243080022437FF120DC4
:040C40003A1A80D10B
:010C4400228D
:040C45008A448B450D
:100C4900120DA5AA46EAD394004028EA24FFFDE440
:100C590034FFFC7F027E00120C89AC44AD45CFCD38
:100C6900CFCECCCE1204AFEF54012430FF120D3A8F
:030C79001A80D20C
:010C7C002255
:100D61005389F0758901C28D758CFC758A66D28CA8
:070D7100D2A9D2AFD2B922D2
:100D780053890F438910C28F758DFC758B66D28E8F
:070D8800D2ABD2AFC2BB22C7
:0E0DF300AD071FED60087E021EEE60F480FA70
:010E010022CE
:040CB000AB07AA06DE
:100CB400900000D3E5829BE5839A501BD2A57F0C5C
:100CC400120DF3C2A57F0C120DF374192582F5825F
:070CD400E43583F58380DCA9
:010CDB0022F6
:10085500752F007530107590FFC2932097177F1480
:100865007E00120D8F3097FD7F147E00120D8F755F
:100875002F007530012096177F147E00120D8F30E2
:1008850096FD7F147E00120D8F752F0075300420A4
:1008950095177F147E00120D8F3095FD7F147E0015
:1008A500120D8F752F007530077590FFC292209736
:1008B500177F147E00120D8F3097FD7F147E001276
:1008C5000D8F752F007530022096177F147E00124C
:1008D5000D8F3096FD7F147E00120D8F752F0075DC
:1008E50030052095177F147E00120D8F3095FD7F02
:1008F500147E00120D8F752F007530082094167F19
:10090500147E00120D8F3094FD7F147E00120D8F22
:10091500E4F52FF5307590FFC2912097177F147E6F
:1009250000120D8F3097FD7F147E00120D8F752FED
:10093500007530032096177F147E00120D8F3096B8
:10094500FD7F147E00120D8F752F007530062095E2
:10095500177F147E00120D8F3095FD7F147E0012D7
:0C0965000D8F752F00753009AE2FAF30DC
:010971002263
:03000000020A0FE2
:0C0A0F00787FE4F6D8FD758146020A5697
:10037A00E709F608DFFA8046E709F208DFFA803E65
:10038A0088828C83E709F0A3DFFA8032E309F60852
:10039A00DFFA8078E309F208DFFA807088828C83BA
:1003AA00E309F0A3DFFA806489828A83E0A3F6086E
:1003BA00DFFA805889828A83E0A3F208DFFA804C48
:1003CA0080D280FA80C680D4806980F2803380101F
:1003DA0080A680EA809A80A880DA80E280CA803388
:1003EA0089828A83ECFAE493A3C8C582C8CCC58300
:1003FA00CCF0A3C8C582C8CCC583CCDFE9DEE780D0
:10040A000D89828A83E493A3F608DFF9ECFAA9F04E
:10041A00EDFB2289828A83ECFAE0A3C8C582C8CCA4
:10042A00C583CCF0A3C8C582C8CCC583CCDFEADEBD
:10043A00E880DB89828A83E493A3F208DFF980CC1F
:10044A0088F0EF60010E4E60C388F0ED2402B40418
:10045A000050B9F582EB2402B4040050AF232345BF
:06046A0082239003CA7317
:10047000BB010CE58229F582E5833AF583E0225041
:1004800006E92582F8E622BBFE06E92582F8E2228B
:0D049000E58229F582E5833AF583E49322A5
:10049D00EF8DF0A4A8F0CF8CF0A428CE8DF0A42E73
:0204AD00FE222D
:1004AF00BC000BBE0029EF8DF084FFADF022E4CC31
:1004BF00F875F008EF2FFFEE33FEEC33FCEE9DECFA
:1004CF00984005FCEE9DFE0FD5F0E9E4CEFD22ED40
:1004DF00F8F5F0EE8420D21CFEADF075F008EF2F8A
:1004EF00FFED33FD4007985006D5F0F222C398FD7B
:0504FF000FD5F0EA2218
:10050400E88FF0A4CC8BF0A42CFCE98EF0A42CFC96
:100514008AF0EDA42CFCEA8EF0A4CDA8F08BF0A414
:100524002DCC3825F0FDE98FF0A42CCD35F0FCEB73
:100534008EF0A4FEA9F0EB8FF0A4CFC5F02ECD3938
:0F054400FEE43CFCEAA42DCE35F0FDE43CFC22A5
:1005530075F008758200EF2FFFEE33FECD33CDCC5F
:1005630033CCC58233C5829BED9AEC99E5829840E2
:100573000CF582EE9BFEED9AFDEC99FC0FD5F0D6BF
:10058300E4CEFBE4CDFAE4CCF9A88222B800C1B9E9
:100593000059BA002DEC8BF084CFCECDFCE5F0CB27
:1005A300F97818EF2FFFEE33FEED33FDEC33FCEB60
:1005B30033FB10D703994004EB99FB0FD8E5E4F91B
:1005C300FA227818EF2FFFEE33FEED33FDEC33FC08
:1005D300C933C910D7059BE99A4007EC9BFCE99AFC
:1005E300F90FD8E0E4C9FAE4CCFB2275F010EF2F41
:1005F300FFEE33FEED33FDCC33CCC833C810D70741
:100603009BEC9AE899400AED9BFDEC9AFCE899F87B
:0E0613000FD5F0DAE4CDFBE4CCFAE4C8F9220E
:10062100EB9FF5F0EA9E42F0E99D42F0E89C45F02F
:0106310022A6
:10001E00E53D2431F8E6053D22782E300702783191
:10002E00E475F00112065D0206322000EB7F2ED23F
:10003E00008018EF540F2490D43440D4FF30040BBA
:10004E00EF24BFB41A0050032461FFE53E60021591
:10005E003E0541E5417002054030070D782EE475EE
:10006E00F00112065DEF02064B020CDC7403D207A0
:10007E008003E4C207F53D8B2E8A2F8930E4F53ECE
:10008E00F540F541E53E60077F2012005980F57579
:10009E003FFFC201C200C202C203C205C206C208AD
:1000AE00120027FF700D3007057F0012006AAF4166
:1000BE00AE4022B4255FC2D5C204120027FF24D061
:1000CE00B40A00501A75F00A783E30D50508B6FF0E
:1000DE000106C6A426F620D5047002D20380D924C8
:1000EE00CFB41A00EF5004C2E5D20402026AD20164
:1000FE0080C6D20080C0D20280BCD2D580BAD205D2
:10010E0080B47F201200592002077401B53E0040D2
:10011E00F112001EFF120059020092D208D2068080
:10012E009512001EFB12001EFA12001EF94A4B70A9
:10013E0006793B7A037BFF20022EE53E602A7E0085
:10014E008E8275830012047060060EEE653F70F0AD
:10015E00C2D5EBC0E0EAC0E0E9C0E0EE1202B1D0D9
:10016E00E0F9D0E0FAD0E0FB120632FF60AAEBC055
:10017E00E0EAC0E0E9C0E0120059D0E02401F9D075
:10018E00E03400FAD0E0FBE53F0460DCD53FD980D7
:10019E00877BFF7A0279ADD202809C79108002793A
:1001AE0008C206C2088008D2D5790A8004790AC22C
:1001BE00D5E53F047002F53FE4FAFDFEFF12001E86
:1001CE00FC7B0820011312001EFD7B1030000A126A
:1001DE00001EFE12001EFF7B20EC3382D592D550FE
:1001EE0013C3E43000069FFFE49EFEE42001039D4E
:1001FE00FDE49CFCE4CBF8C201EC700CCFCECDCC70
:10020E00E824F8F870F38017C3EF33FFEE33FEEDFA
:10021E0033FDEC33FCEB33FB994002FB0FD8E9EBDB
:10022E00300105F8D0E0C448B201C0E00AEC4D4EF2
:10023E004F78207B0070C2EAB53F0040BCC0E01290
:10024E0002B3D0F0D0E0200104C4C0E0C4B201C0BB
:10025E00F0120042D0F0D5F0EB02009212066D01C2
:10026E002F5301A95801004C00FC4201AD4F01B5BE
:0F027E004401B54901154301BB55019F46019F3E
:10028D0045019F47035B5001042D01082E012B2BC7
:10029D00010C2301292003442A00C4480000012336
:1002AD003F3F3F00790AA2D5200314300509B9104C
:1002BD00020404B9080104A2D5200602500104204D
:1002CD0002689202B53E005034C0E07F2030031921
:1002DD007F30A20272067205500F12030AC202C2CB
:1002ED0006C205C2087F30800F300503E9C0E01259
:1002FD000059300503D0E0F9D0E0B53ECC300517FC
:10030D007F30B9100C1200597F583004077F788068
:10031D0003B908031200593002057F2D0200597FE1
:10032D00202008F87F2B2006F322920280CF286E22
:10033D00756C6C2900D20112001E3001F8C20178D3
:10034D003E30D50108F60200C42D50434958120025
:10035D001E2403B405004001E49003569312004A95
:0D036D00743A12004AD203753E040201A941
:100A1B00020693E493A3F8E493A34003F68001F258
:100A2B0008DFF48029E493A3F85407240CC8C333DC
:100A3B00C4540F4420C8834004F456800146F6DFAB
:100A4B00E4800B0102040810204080900DBBE47E73
:100A5B00019360BCA3FF543F30E509541FFEE493A0
:100A6B00A360010ECF54C025E060A840B8E493A367
:100A7B00FAE493A3F8E493A3C8C582C8CAC583CA92
:100A8B00F0A3C8C582C8CAC583CADFE9DEE780BE4A
:010DCF000023
:10063200BB010689828A83E0225002E722BBFE02C6
:09064200E32289828A83E49322F9
:10064B00BB010689828A83F0225002F722BBFE018E
:02065B00F32288
:10065D00FAE6FB0808E6F925F0F618E6CA3AF6229E
:10066D00D083D082F8E4937012740193700DA3A31C
:10067D0093F8740193F5828883E473740293686030
:06068D00EFA3A3A380DF30
:100CDC00EFB40A07740D120CE7740A309811A89936
:100CEC00B8130CC2983098FDA899C298B811F63078
:070CFC0099FDC299F5992250
:00000001FF
