:1000DF00C3500072411B0072411B0072411B008014
:0800EF00C35000720000000084
:0700F700EAC313FEEB13FF47
:0B00FE00EF1FAC0670011E4C70F622D4
:0800AE008E0F8F10AB05AA04B0
:1000B600900000EB4A6021C3E5829510E583950F19
:1000C6005016D2A51200F7C2A51200F7EB2582F54D
:0800D60082EA3583F58380DF27
:0100DE0022FF
:100066008B0C8A0D890EAB0CAA0DA90E120003FF8C
:10007600AEF04E700A90000212002E45F060228EFD
:10008600088F0990000212002EF50B85F00AFDACD0
:100096000A1200AE7404250EF50EE4350DF50D803A
:0800A600C57F647E000200FE2C
:0E01090000007F7F7E127D6BDDFEDEFCDFFAE4
:0101170022C5
:0E0118007BFF7A0079DF12006612010980F287
:03000000020126D4
:0C012600787FE4F6D8FD75811002011806
:10000300BB010A89828A83E0F5F0A3E022500687C8
:10001300F009E71922BBFE07E3F5F009E31922898A
:0B002300828A83E493F5F074019322BD
:10002E00BB0110E58229F582E5833AF583E0F5F010
:10003E00A3E0225009E92582F886F008E622BBFEED
:10004E000AE92582F8E2F5F008E222E5832AF58333
:08005E00E993F5F0A3E99322F8
:00000001FF
