:0B041D004D61747269784B6579210015
:10033200E4F508F5091203EE7BFF7A04791D7D01CD
:100342007F011203641200038E088F09E509450834
:1003520060F3750E02AB09AA087D017F021203A5A4
:0203620080E336
:1003C200EF1FAC0670011E4C600B007D027CC7DC87
:0503D200FEDDFC80EBE4
:0103D7002203
:06040200C2A58F80D2A705
:080408007F027EEFDEFEDFFC47
:0104100022C9
:0A042800C2A6120402C2A7020408D3
:10038700CFCDCFCECCCE1201FF7C007D0A1201FF6C
:04039700ED2430FF22
:0A039B00D2A6120402C2A702040851
:1003D800AE07BE0104ED148006BE0209ED243F44B9
:0603E80080FF1204282230
:1003EE007F381204287F0C1204287F061204287FFF
:0403FE0001020428CC
:0A043200AC031203D8AF0402039BD1
:060364008B0A8A0B890CD4
:10036A001203D8E4FDAB0AAA0BA90C8D827583008F
:0C037A001201C0FF600612039B0D80E919
:010386002254
:0C02FF007F0AEA24FFFDE434FFFC7E00CF
:08030B008E0F8F108C118D1272
:100313007F017E00E4FBEBC39512E5116480F87462
:0E0323008098500AAC0FAD101201ED0B80E86F
:0103310022A9
:0403A5008A0C8B0D26
:1003A9001203D8AA0EEAD39400400D1202FFAC0C36
:0803B900AD0D1203871A80ED5F
:0103C1002219
:100254001203D8C3EA64809480400B7F2B12039B63
:100264008A188B19800E7F2D12039BC3E49BF5190A
:10027400E49AF518AA17EAD39400400D1202FFACD1
:0902840018AD191203871A80ED70
:01028D00224E
:04028E008A1C8B1D1E
:100292001203D8AA1EEAD3940040297F1012030148
:1002A200AC1CAD1DCFCDCFCECCCE1201FFEF540F83
:1002B200FEC3940AEE5004243080022437FF120356
:0402C2009B1A80D132
:0102C6002215
:0402C7008A218B22DB
:1002CB001203D8AA23EAD394004028EA24FFFDE4C2
:1002DB0034FFFC7F027E0012030BAC21AD22CFCD8D
:1002EB00CFCECCCE1201FFEF54012430FF12039B73
:0302FB001A80D294
:0102FE0022DD
:10000300E4F50AF50B7590FFC2932097167F14FE53
:100013001203C23097FD7F147E001203C2750A00DB
:10002300750B012096177F147E001203C23096FDD4
:100033007F147E001203C2750A00750B0520951705
:100043007F147E001203C23095FD7F147E001203DD
:10005300C2750A00750B092094177F147E001203E2
:10006300C23094FD7F147E001203C2750A00750B23
:100073000D7590FFC2922097177F147E001203C262
:100083003097FD7F147E001203C2750A00750B02C0
:100093002096177F147E001203C23096FD7F147ED4
:1000A300001203C2750A00750B062095177F147E94
:1000B300001203C23095FD7F147E001203C2750A3D
:1000C30000750B0A2094177F147E001203C230942C
:1000D300FD7F147E001203C2750A00750B0E759026
:1000E300FFC2912097177F147E001203C23097FD41
:1000F3007F147E001203C2750A00750B0320961746
:100103007F147E001203C23096FD7F147E0012031B
:10011300C2750A00750B072095177F147E00120322
:10012300C23095FD7F147E001203C2750A00750B61
:100133000B2094177F147E001203C23094FD7F14AA
:100143007E001203C2750A00750B0F7590FFC290F3
:100153002097177F147E001203C23097FD7F147E11
:10016300001203C2750A00750B042096177F147ED4
:10017300001203C23096FD7F147E001203C2750A7B
:1001830000750B082095177F147E001203C230956B
:10019300FD7F147E001203C2750A00750B0C2094B8
:1001A300177F147E001203C23094FD7F147E001269
:0C01B30003C2750A00750B10AE0AAF0BFA
:0101BF00221D
:03000000020411E6
:0C041100787FE4F6D8FD758123020332E9
:1001C000BB010CE58229F582E5833AF583E02250F4
:1001D00006E92582F8E622BBFE06E92582F8E2223E
:0D01E000E58229F582E5833AF583E4932258
:1001ED00EF8DF0A4A8F0CF8CF0A428CE8DF0A42E26
:0201FD00FE22E0
:1001FF00BC000BBE0029EF8DF084FFADF022E4CCE4
:10020F00F875F008EF2FFFEE33FEEC33FCEE9DECAC
:10021F00984005FCEE9DFE0FD5F0E9E4CEFD22EDF2
:10022F00F8F5F0EE8420D21CFEADF075F008EF2F3C
:10023F00FFED33FD4007985006D5F0F222C398FD2D
:05024F000FD5F0EA22CA
:00000001FF
